:100000000C9462000C948A000C948A000C948A0070
:100010000C948A000C948A000C948A000C948A0038
:100020000C948A000C948A000C948A000C948A0028
:100030000C948A000C948A000C948A000C948A0018
:100040000C9412060C948A000C94E0050C94BA05EA
:100050000C948A000C948A000C948A000C948A00F8
:100060000C945C060C948A00000000002400270019
:100070002A0000000000250028002B0000000000DE
:1000800023002600290004040404040404040202DA
:100090000202020203030303030301020408102007
:1000A0004080010204081020010204081020000012
:1000B0000008000201000003040700000000000027
:1000C00000008A0711241FBECFEFD8E0DEBFCDBFEE
:1000D00011E0A0E0B1E0E8E7F2E102C005900D9286
:1000E000AC35B107D9F722E0ACE5B1E001C01D9213
:1000F000AD3BB207E1F710E0C2E6D0E004C02197C3
:10010000FE010E942F09C136D107C9F70E94E907F5
:100110000C943A090C9400002091FA019091F90195
:10012000213208F04AC08091D6018111FCCF32E023
:100130003093D60131E03093D5013FEF3093D401B5
:100140001092D3012093D201A9EDB1E042EB51E02E
:10015000FA013E2F341B321718F43D913193F9CF39
:100160001092B1012091B101990F922B9093B1019E
:100170009091B001913061F41092B0019091B10171
:100180009093BB009091BC0093FDF8CF95EC01C01B
:1001900095EE9093BC009091D6019230E1F390914E
:1001A000D4019F3F79F08091D401803241F0809159
:1001B000D401803331F084E005C081E003C082E0E7
:1001C00001C083E01092D8011092FA011092D70179
:1001D0000895CF92DF92EF92FF920F931F93CF93E8
:1001E000DF936C017A018B01C0E0D0E0CE15DF0512
:1001F00089F0D8016D918D01D601ED91FC910190AE
:10020000F081E02DC6010995892B11F47E0102C011
:100210002196ECCFC701DF91CF911F910F91FF90F5
:10022000EF90DF90CF900895FC01538D448D252FE2
:1002300030E0842F90E0821B930B541710F0CF9680
:10024000089501970895FC01918D828D981761F0B2
:10025000828DDF01A80FB11D5D968C91928D9F5FFD
:100260009F73928F90E008958FEF9FEF0895FC01A8
:10027000918D828D981731F0828DE80FF11D858D5B
:1002800090E008958FEF9FEF0895FC01918D228DEE
:10029000892F90E0805C9F4F821B91098F73992773
:1002A00008958BEF91E00E94450121E0892B09F42C
:1002B00020E0822F0895FC01848DDF01A80FB11D7D
:1002C000A35ABF4F2C91848D90E001968F7399278C
:1002D000848FA689B7892C93A089B1898C91806479
:1002E0008C93938D848D981306C00288F389E02D3A
:1002F00080818F7D80830895EF92FF920F931F93EB
:10030000CF93DF93EC0181E0888F9B8D8C8D9813C8
:1003100005C0E889F989808185FD24C0F62E0B8D02
:1003200010E00F5F1F4F0F731127E02E8C8DE81226
:100330000CC00FB607FCFACFE889F989808185FFE8
:10034000F5CFCE010E945B01F1CF8B8DFE01E80F4E
:10035000F11DE35AFF4FF0820B8FEA89FB89808100
:10036000806207C0EE89FF896083E889F98980810E
:100370008064808381E090E0DF91CF911F910F91A5
:10038000FF90EF900895CF93DF93EC01888D882341
:10039000C9F0EA89FB89808185FD05C0A889B989F2
:1003A0008C9186FD0FC00FB607FCF5CF808185FFCD
:1003B000F2CFA889B9898C9185FFEDCFCE010E943B
:1003C0005B01E7CFDF91CF91089580E090E0892B2A
:1003D00029F00E94510181110C940000089583308E
:1003E00081F028F4813099F08230A1F008958730AF
:1003F000A9F08830B9F08430D1F4809180008F7DED
:1004000003C0809180008F7780938000089584B529
:100410008F7702C084B58F7D84BD08958091B00030
:100420008F7703C08091B0008F7D8093B0000895D6
:10043000CF93DF93282F30E0F901E255FF4F8491ED
:10044000F901E656FF4FD491F901EA57FF4FC491E5
:10045000CC2391F081110E94EF01EC2FF0E0EE0F20
:10046000FF1FE458FF4FA591B491EC91ED2381E07B
:1004700090E021F480E002C080E090E0DF91CF9135
:1004800008951F93CF93DF93282F30E0F901E255B1
:10049000FF4F8491F901E656FF4FD491F901EA57D5
:1004A000FF4FC491CC23C9F0162F81110E94EF0198
:1004B000EC2FF0E0EE0FFF1FEE58FF4FA591B49127
:1004C0008FB7F894111105C09C91ED2FE095E923A9
:1004D00002C0EC91ED2BEC938FBFDF91CF911F9178
:1004E0000895CF93DF9390E0FC01E656FF4F2491EF
:1004F000FC01EA57FF4F8491882361F190E0880F57
:10050000991FFC01E859FF4FC591D491FC01EE58A9
:10051000FF4FA591B491611109C09FB7F8948881EC
:10052000209582238883EC912E230BC0623061F4E6
:100530009FB7F8943881822F809583238883EC912C
:100540002E2B2C939FBF06C08FB7F894E8812E2BDB
:1005500028838FBFDF91CF9108953FB7F8948091A2
:10056000AA019091AB01A091AC01B091AD0126B56B
:10057000A89B05C02F3F19F00196A11DB11D3FBFDB
:10058000BA2FA92F982F8827820F911DA11DB11D69
:10059000BC01CD0142E0660F771F881F991F4A9565
:1005A000D1F708958F929F92AF92BF92CF92DF9230
:1005B000EF92FF926B017C010E94AD024B015C0146
:1005C000C114D104E104F104F1F00E94AD02DC0198
:1005D000CB0188199909AA09BB09883E9340A10556
:1005E000B10570F321E0C21AD108E108F10888EEE4
:1005F000880E83E0981EA11CB11CC114D104E10433
:10060000F10419F7DDCFFF90EF90DF90CF90BF900E
:10061000AF909F908F90089585ED8093BC0080915E
:10062000BC0084FDFCCF1092D6010895409180015A
:10063000262F30E0240F311D21323105DCF42091CA
:10064000D6012430C9F4FC0180E090E0861758F40C
:10065000309180012191DC01A25ABE4FA30FB11D40
:100660002C930196F3CF80918001680F60938001F5
:1006700080E0089581E0089582E00895089581E082
:1006800090E030915D0120915C01321710F480E020
:1006900090E0919581959109089580915D019091E7
:1006A0005C01891730F48F5F80935D0180E090E0FA
:1006B00008958FEF9FEF089580915C0190E0209165
:1006C0005D01821B91090895CF92DF92EF92FF9214
:1006D0000F931F93CF93DF937C01262F972F8A01CF
:1006E0008091D701882391F0C62FD72F6E01C40EB9
:1006F000D51ECC15DD0571F06991D701ED91FC9106
:100700000190F081E02DC7010995F3CF642F822F6E
:100710000E941603C801DF91CF911F910F91FF90A6
:10072000EF90DF90CF900895CF93DF931F92CDB7D6
:10073000DEB769832091D7012223D1F02091FA01FD
:10074000203240F021E030E0FC013383228380E05E
:1007500090E015C08091D801E82FF0E0E752FE4FFD
:10076000998190838F5F8093D8018093FA0105C0AF
:1007700061E0CE0101960E94160381E090E00F90A7
:10078000DF91CF91089521E001C0220F6A95EAF729
:10079000DC011C962C931C971A965C934E93199728
:1007A000ED91FC910484F585E02D60E00994DC0175
:1007B000ED91FC910684F785E02D41E0099581E0FB
:1007C00090E00895DC01ED91FC910684F785E02D21
:1007D00040E00994CF93DF93CDB7DEB728970FB6EB
:1007E000F894DEBF0FBECDBF1D8290E49E8324E14E
:1007F0002F8324E5288719829A8390E19B8390E5D3
:100800009C832091AB02821710F08FEF820F309102
:10081000AC0290E0FE01E80FF91F303121F42430E2
:1008200011F4618101C06581606884EA92E02896D4
:100830000FB6F894DEBF0FBECDBFDF91CF910C9401
:10084000E2030F931F93CF93DF93EC01423018F034
:100850008C8188608C834F836887222329F0413004
:1008600019F48C8184608C8364E670E080E090E011
:100870000E94D2026C8164FD31C0E881F981068456
:10088000F785E02D42E063E0CE0109958BE496E424
:100890000197F1F7E881F9810684F785E02D42E0C0
:1008A00063E0CE01099503E512E0C8010197F1F775
:1008B000E881F9810684F785E02D42E063E0CE010E
:1008C0000995C8010197F1F7E881F9810684F78558
:1008D000E02D42E062E0CE01099517C06062CE01D2
:1008E0000E94E2038BE496E40197F1F76C81606269
:1008F000CE010E94E20303E512E0C8010197F1F77F
:100900006C816062CE010E94E203C8010197F1F799
:100910006C816062CE010E94E2038BEE90E0019751
:10092000F1F784E08D836CE0CE010E94E20361E088
:10093000CE010E94E2038BE39FE10197F1F782E091
:100940008E8366E0CE010E94E203E881F98104848F
:10095000F585E02D6FEFCE01DF91CF911F910F91C3
:10096000099408950895089580E090E00895FC01A9
:1009700023812223B9F0918190956923608382813C
:1009800091E09093D7018093F9011092D8011092D1
:10099000FA0188E992E00E9494030E948C00282FBB
:1009A00030E002C020E030E081E090E0232B11F045
:1009B00080E090E00895EF92FF920F931F93CF9302
:1009C0008C01FC01759684E0C0E060FF02C090815C
:1009D000C92B6695815031968111F7CF413011F4C2
:1009E000F8014489F8018585C82BC42B7801FEE005
:1009F000EF0EF11CF80162896C2BC7010E94B7044D
:100A0000F801628960956C23C701CF911F910F9106
:100A1000FF90EF900C94B7040F931F93CF93DF9345
:100A2000062F0F70423019F440E0602F10C0142FD1
:100A3000262FEC0130E0B90184E0759567958A9521
:100A4000E1F7CE010E94DB04412F602FCE01DF9140
:100A5000CF911F910F910C94DB04FC0184858823B6
:100A6000A9F0218532852115310519F4611106C0DF
:100A700007C02130310521F4611102C0858701C012
:100A800015866585CF010E960C94B7040895EF92F4
:100A9000FF920F931F93CF93DF93EC01062FF42E59
:100AA000E22E8B85888B10925D0110925C01109272
:100AB000D8011092FA011092D60111E01093D501DD
:100AC0001092B00161E082E10E94410261E083E1A5
:100AD0000E9441028091B9008E7F8093B90080917D
:100AE000B9008D7F8093B90088E48093B80085E4D5
:100AF0008093BC0088891093D7018093F9011092EC
:100B0000D8011092FA010E948C0091E0811190E0CE
:100B1000998B992329F088E992E00E944D038E87F2
:100B20008989882339F01F861C8260E0CE010E96E9
:100B30000E94B7042E2D4F2D602FCE01DF91CF9153
:100B40001F910F91FF90EF900C942104009769F092
:100B5000FC0101900020E9F73197AF01481B590BC8
:100B6000BC0184EA92E00C94E90080E090E00895F2
:100B70000E9435091F920F920FB60F9211242F93E6
:100B80003F934F935F936F937F938F939F93AF9315
:100B9000BF93EF93FF938BEF91E00E945B01FF9176
:100BA000EF91BF91AF919F918F917F916F915F91E5
:100BB0004F913F912F910F900FBE0F901F9018955E
:100BC0001F920F920FB60F9211242F938F939F9322
:100BD000EF93FF93E0910B02F0910C028081E09182
:100BE0001102F091120282FD12C0908180911402D4
:100BF0008F5F8F7320911502821751F0E0911402DC
:100C0000F0E0E550FE4F958F8093140201C0808183
:100C1000FF91EF919F918F912F910F900FBE0F90A9
:100C20001F9018951F920F920FB60F9211242F93B9
:100C30003F938F939F93AF93BF938091A601909121
:100C4000A701A091A801B091A9013091A50123E0CD
:100C5000230F2D3720F40196A11DB11D05C026E8F4
:100C6000230F0296A11DB11D2093A5018093A6011B
:100C70009093A701A093A801B093A9018091AA0124
:100C80009091AB01A091AC01B091AD010196A11D75
:100C9000B11D8093AA019093AB01A093AC01B093D6
:100CA000AD01BF91AF919F918F913F912F910F9087
:100CB0000FBE0F901F9018951F920F920FB60F92B4
:100CC00011242F933F934F935F936F937F938F9351
:100CD0009F93AF93BF93EF93FF938091B900887F69
:100CE000803609F49CC068F5883209F45BC090F442
:100CF000803109F454C038F4882309F4F6C08830F0
:100D000009F44DC0F6C0883109F44CC0803209F4B2
:100D10005DC0EFC0803409F468C048F4803309F442
:100D200055C0883309F0E5C08093D401D8C0803520
:100D300009F44FC0883509F45DC0883409F0D9C082
:100D4000D6C0883909F4C7C0A8F4883709F467C049
:100D500038F4883609F463C0803709F460C0C9C02C
:100D6000883809F4B8C0803909F45FC0803809F0C8
:100D7000C0C05BC0803B09F486C038F4803A09F4F7
:100D800066C0883A09F47FC0B4C0803C09F4A7C0AB
:100D9000883C09F4A4C0883B09F48AC0AAC08091A9
:100DA000B10110C09091D3018091D201981770F5D4
:100DB000E091D30181E08E0F8093D301F0E0EE54F7
:100DC000FE4F80818093BB0085EC86C08093D40168
:100DD0008EC0E091D30181E08E0F8093D30180918A
:100DE000BB00F0E0EE54FE4F80839091D3018091E0
:100DF000D2016EC0E091D30181E08E0F8093D301C8
:100E00008091BB00F0E0EE54FE4F80838091D501CD
:100E100081116DC081E08093B00184EA61C083E0FC
:100E20008093D6011092A401CFCF8091A40180328B
:100E300008F051C0E091A40181E08E0F8093A401DD
:100E40008091BB00F0E0EC57FE4F8083BDCF85EC76
:100E50008093BC001092D6018091A401803230F4BE
:100E6000E091A401F0E0EC57FE4F10826091A401E4
:100E700070E0E0918201F091830184E891E00995AE
:100E80001092A40136C084E08093D60110928101B3
:100E900010928001E0917E01F0917F01099580918F
:100EA0008001811105C081E08093800110925E0174
:100EB000E091810181E08E0F80938101F0E0E25AA0
:100EC000FE4F80818093BB009091810180918001D1
:100ED000981708F479CF85E88093BC000AC085ECA8
:100EE0008093BC001092D60104C01092D4010E94DD
:100EF0000C03FF91EF91BF91AF919F918F917F91E3
:100F00006F915F914F913F912F910F900FBE0F9076
:100F10001F901895EBEFF1E01382128288EE93E0B8
:100F2000A0E0B0E084839583A683B78324E031E01A
:100F30003183208325EC30E03587248724EC30E0B2
:100F40003787268720EC30E0318B208B21EC30E096
:100F5000338B228B22EC30E0358B248B26EC30E077
:100F6000378B268B118E128E138E148EE8E9F2E0E9
:100F70001382128284839583A683B78386E191E0EE
:100F800091838083E4EAF2E01382128288E291E0A6
:100F900091838083108A8FEF87871686118A8FE36B
:100FA0008387148615861286118684E0828B82E000
:100FB000838B81E0848B80E1858B80E2868B80E46B
:100FC000878B80E8808F40E050E063E0CF010C9495
:100FD000C303789484B5826084BD84B5816084BD88
:100FE00085B5826085BD85B5816085BD80916E00C7
:100FF000816080936E0010928100809181008260F8
:101000008093810080918100816080938100809134
:1010100080008160809380008091B1008460809323
:10102000B1008091B00081608093B00080917A001F
:10103000846080937A0080917A00826080937A0045
:1010400080917A00816080937A0080917A00806834
:1010500080937A001092C10062E085E00E947102E4
:1010600062E086E00E94710261E088E00E94710205
:1010700061E089E00E94710220E042E060E184EAE0
:1010800092E00E944705E0910B02F0910C0282E091
:101090008083E0910702F09108021082E09109023A
:1010A000F0910A028FEC808310921302E0910F02FC
:1010B000F091100286E08083E0910D02F0910E0223
:1010C000808180618083E0910D02F0910E02808129
:1010D00088608083E0910D02F0910E02808180682B
:1010E0008083E0910D02F0910E0280818F7D8083DC
:1010F000C1E0D0E085E00E941802892B31F4809194
:10110000AE019091AF01892B31F185E00E94180268
:10111000892B31F48091AE019091AF010197E1F1FB
:1011200086E00E941802892B39F48091AE019091DB
:10113000AF01892B09F451C086E00E941802892B67
:1011400039F48091AE019091AF01019709F466C026
:101150000E94E501CFCF68EE73E080E090E00E944E
:10116000D20261E088E00E94410260E089E00E94D2
:101170004102D093AF01C093AE0180E00E94EA0328
:1011800088E391E00E94A60581E00E94EA0388E4DA
:1011900091E00E94A605B9CF68EE73E080E090E090
:1011A0000E94D20260E088E00E94410261E089E092
:1011B0000E9441021092AF011092AE0180E00E94A5
:1011C000EA0388E391E00E94A60581E00E94EA0319
:1011D0008EE491E00E94A605A3CF68EE73E080E064
:1011E00090E00E94D20260E088E00E94410260E04C
:1011F00089E00E944102D093AF01C093AE0180E02C
:101200000E94EA0388E391E00E94A60581E00E9423
:10121000EA0385E591E00E94A6058ECF68EE73E0B3
:1012200080E090E00E94D20260E088E00E944102EB
:1012300060E089E00E9441021092AF011092AE017D
:1012400080E00E94EA0388E391E00E94A60581E025
:101250000E94EA038EE491E00E94A60579CFEE0F8A
:10126000FF1F0590F491E02D099481E090E0F8943F
:081270000C943A09F894FFCF39
:10127800000000007C01E9001401C30145012301BD
:1012880037010000000094036403B4043E035C03C8
:101298004D033F0300000000D703E900B404B30482
:1012A8004705C3032D050C054172616820707574EC
:1012B8006172616E203A20006B616E616E0053743A
:0C12C8006F702020004B6972692020002C
:00000001FF
